:020000040800F2
:1000000000040020F1010008F3010008612100084C
:10001000F3010008F3010008F3010008F3010008F0
:10002000F3010008F3010008F3010008A5470008E8
:10003000F3010008F3010008F3010008F3010008D0
:10004000F3010008F3010008F3010008F3010008C0
:10005000F3010008F3010008052300084923000804
:100060008D230008D123000815240008A55100089D
:10007000C1510008DD510008F9510008155200086F
:10008000315200084D520008F3010008F301000846
:10009000F3010008F3010008F301000859240008E7
:1000A000F3010008F3010008F3010008F301000860
:1000B000F3010008F3010008F3010008F301000850
:1000C000F3010008F3010008F3010008A929000862
:1000D000DD290008F3010008F3010008F30100081E
:1000E0009D240008F3010008F3010008F301000853
:1000F000F3010008F3010008F3010008F301000810
:10010000F3010008F3010008AD390008112A0008C6
:10011000F3010008F3010008F3010008F3010008EF
:100120006952000885520008A1520008BD5200081B
:10013000D9520008F3010008F3010008F301000898
:10014000F3010008F3010008F3010008454D000821
:10015000F552000811530008F3010008F3010008EC
:10016000F3010008F3010008F3010008F30100089F
:10017000F3010008F3010008F3010008F30100088F
:10018000F3010008F3010008F3010008F30100087F
:10019000F3010008F3010008F3010008F30100086F
:0C01A000D501000865380008B101000816
:1001B00010B5054C237833B9044B13B10448AFF3A1
:1001C00000800123237010BD68080020000000009B
:1001D0004060000808B5034B1BB103490348AFF367
:1001E000008008BD000000006C080020406000088E
:1001F00020E000F000F8FEE72DE9F04F2DED108A29
:10020000C1F80CD0C3689D46BDEC108ABDE8F08FE4
:1002100003F0F0FE002383F311882846A047002056
:1002200004F010FA03F0D6FE04F058F803F0E2FEF2
:1002300000DFFEE772B6394880F30888384880F35B
:10024000098838484EF60851CEF20001086040F2A5
:100250000000CCF200004EF63471CEF200010860CE
:10026000BFF34F8FBFF36F8F40F20000C0F2F0007A
:100270004EF68851CEF200010860BFF34F8FBFF3F6
:100280006F8F4FF00000E1EE100A4EF63C71CEF297
:1002900000010860062080F31488BFF36F8F04F01C
:1002A000BDFA04F0BCFA4FF055301F491B4A914289
:1002B0003CBF41F8040BFAE71C49194A91423CBF84
:1002C00041F8040BFAE71A491A4A1B4B9A423EBFFF
:1002D00051F8040B42F8040BF8E700201749184ABC
:1002E00091423CBF41F8040BFAE704F09BFA04F09A
:1002F00097FA144C144DAC4203DA54F8041B8847A7
:10030000F9E703F0B1F9114C114DAC4203DA54F89E
:10031000041B8847F9E704F084BA000000040020B9
:100320000008002000000008000000200004002059
:1003300040600008000800206408002068080020D1
:100340006C410020A0010008A8010008A8010008D5
:10035000AC01000853B94AB9002908BF00281CBFE6
:100360004FF0FF314FF0FF3000F07AB9ADF1080CDB
:100370006DE904CE00F006F8DDF804E0DDE90223C3
:1003800004B070472DE9F0478C460D460446089EA0
:10039000002B51D18A4217466DD9B2FA82FEBEF1C6
:1003A000000F0BD0CEF1200C01FA0EF520FA0CFC58
:1003B00002FA0EF74CEA050C00FA0EF44FEA174A5F
:1003C000250CBCFBFAF81FFA87F90AFB18CC45EAA2
:1003D0000C4508FB09F3AB420AD9ED1908F1FF32CD
:1003E00080F02381AB4240F22081A8F102083D4415
:1003F000ED1AA4B2B5FBFAF00AFB105544EA054425
:1004000000FB09F9A14509D9E41900F1FF3380F097
:100410000A81A14540F2078102383C44A4EB09045B
:1004200040EA08400021002E61D024FA0EF4002397
:1004300034607360BDE8F0878B4207D9002E54D03A
:10044000002186E821000846BDE8F087B3FA83F171
:10045000002940F08E80AB4202D3824200F2FA8043
:10046000841A65EB03050120AC46002E3FD086E8D8
:100470001010BDE8F08712B90127B7FBF2F7B7FA01
:1004800087FEBEF1000F34D1EB1B3A0C1FFA87FC3C
:100490000121B3FBF2F8250C02FB183345EA0345B2
:1004A0000CFB08F3AB4207D9ED1908F1FF3002D27B
:1004B000AB4200F2D1808046ED1AA3B2B5FBF2F058
:1004C00002FB105543EA05440CFB00FCA44507D988
:1004D000E41900F1FF3302D2A44500F2B8801846B7
:1004E000A4EB0C0440EA08409DE731463046BDE8E5
:1004F000F087CEF1200405FA0EF307FA0EF720FA82
:1005000004F83A0C25FA04F448EA0308B4FBF2F1C3
:100510004FEA184502FB11441FFA87FC45EA0445DF
:1005200001FB0CF3AB4200FA0EF409D9ED1901F10D
:10053000FF3080F08A80AB4240F2878002393D4430
:10054000EB1A1FFA88F5B3FBF2F002FB103345EA11
:10055000034500FB0CF3AB4207D9ED1900F1FF385E
:100560006FD2AB426DD902383D44EB1A40EA0141EB
:100570008FE7C1F1200722FA07F88B4005FA01F452
:1005800048EA030320FA07FE4FEA134CFD404EEA07
:10059000040EB5FBFCF94FEA1E440CFB19551FFA7B
:1005A00083F844EA054509FB08F4AC4202FA01F27B
:1005B00000FA01FA08D9ED1809F1FF3043D2AC4234
:1005C00041D9A9F102091D442D1B1FFA8EFEB5FB6E
:1005D000FCF00CFB10554EEA054400FB08F8A04562
:1005E00007D9E41800F1FF3529D2A04527D90238F0
:1005F0001C4440EA0940A4EB0804A0FB02894C45D6
:10060000C6464D4615D312D056B1BAEB0E0364EB75
:10061000050404FA07F7CB401F43CC4037607460F1
:100620000021BDE8F0871846F8E69046E0E6C245AE
:10063000EAD2B8EB020E69EB03050138E4E728467D
:10064000D7E7404691E78146BEE7014678E70238A2
:100650003C4445E7084608E7A8F102083D442BE77B
:10066000704700BF7F2810B516D931B1FF2812D8C6
:100670000A4B803833F8100010BD084A32F8114098
:1006800084428BB203D001318029F7D10B4603F1AC
:100690008000C0B210BD002010BD00BF1055000882
:1006A0000649002331F8132022B1824203D1044AC3
:1006B00032F8130070470133F4E700BF105600080A
:1006C000F0570008002070470020704708B5084622
:1006D00002F580314031DA02C90204F028FE002020
:1006E00008BD000002F580322DE9F04140320F4F85
:1006F00001EBC3280C46C1EBC225444504EB0506BB
:1007000002D10020BDE8F081304602F079FE21469A
:100710004FF40062384604F00AFE4FF40062394696
:10072000304602F085FE04F50064E6E78408002008
:10073000032903D8DFE801F00A04070C04207047FE
:100740004023136002E04FF40063138000207047E1
:100750004FF48073F5E742884378007843EA022338
:1007600040EA0320704783690239023B99423DBF4A
:100770004389C06A01FB030000207047024600F174
:100780000B010020C30143EA500312F8010B50FA99
:1007900083F38A42D8B2F5D17047000003685A1C2F
:1007A00002601A7890B2A0F16103192B02D82038A8
:1007B00080B270477F2882BF024B9B1813F8800CD1
:1007C000704700BFD0590008F0B585B004AC0546AD
:1007D00044F80C1D1E46114621B92B785BB956B161
:1007E000012006E02046FFF7D9FF01390028F3D1A8
:1007F000002005B0F0BD04AC019B44F8043D029517
:10080000029B1B783F2B01D02A2B1DD100231A46B7
:100810000299481C02900C7849783F2C0CBF013299
:1008200001233F29F4D02A29F2D00399FFF7CCFF06
:100830000028D5D1039B197801A8FFF7AFFF002E40
:10084000D6D00029D7D1D3E702A8FFF7A7FF0746E4
:100850002046FFF7A3FF87420146EDD1002FCFD1FD
:10086000BEE7026810B552B111460B4611F8014BB4
:100870001F2C0CD93A2CF8D1511C8B4202D04FF0CE
:10088000FF3010BD1278302AF9D101330360002007
:1008900010BD38B50D46044618B900232B60092059
:1008A00038BD0368002BF8D01A78002AF5D0D98813
:1008B00082889142F1D15878FFF706FF10F00100CD
:1008C000EBD123682B6038BD01380A4411F8013B95
:1008D00000F8013F9142F9D17047CA7E8B7E032810
:1008E00043EA022301BF487D0A7D42EA002243EA2F
:1008F000024318467047C2F307238A76CB76037803
:10090000032B01BF120C0A75120A4A757047F8B51D
:10091000056B00F13407044601232A463946407826
:10092000FFF7E0FEA0B9636AE269E070EB1A934258
:1009300001D30020F8BDA678012EFAD9E3696078CA
:100940001D442A4601233946FFF7CCFE013EF3E75A
:100950000120F8BDC3780BB1FFF7D9BF1846704727
:10096000036B8B4270B506460D4612D0FFF7F2FFBF
:10097000044660B92A46012306F134017078FFF776
:10098000A5FE00281CBF4FF0FF350124356320462B
:1009900070BD0024FBE70000002310B5C3704FF0CA
:1009A000FF3303630446FFF7DBFF30BB94F83322C9
:1009B00094F8323243EA02234AF6552293421ED17A
:1009C00094F83430E92B05D0636B104A03F0FF1321
:1009D000934216D104F16A00FFF7BDFE0C4B20F0E4
:1009E0007F4098420FD004F18600FFF7B4FE094B18
:1009F000984214BF0220002010BD042010BD032027
:100A000010BD022010BD002010BD00BFEB00900003
:100A100046415400464154332DE9F043002385B04C
:100A20000B600F461546FFF71CFF061EC0F2338110
:100A30009C4B53F82640002C00F02F813C6023781B
:100A400005F0FE0573B16078FFF73EFEC10709D4DB
:100A5000002D00F0F98010F0040000D00A2005B04D
:100A6000BDE8F0830023F0B223706070FFF72AFE28
:100A7000C20700F114810DB14307EFD400212046D5
:100A8000FFF78AFF022840F0EA8004F5FD75002197
:100A900015F8040C10B12846FFF75DFE4DF8210053
:100AA0000131042905F11005F2D100255DF825601A
:100AB000002E00F0CB8031462046FFF76DFF012865
:100AC00000F2C58094F8402094F83F3043EA0223B6
:100AD000B3F5006F40F0C78094F84B3094F84A505B
:100AE00055EA032504D104F15800FFF734FE05460A
:100AF00094F84490E56109F1FF33012B84F80290EA
:100B000000F2B18094F84170BBB26381002B00F019
:100B1000AA807B1E3B4240F0A68094F8463094F8B1
:100B2000458048EA032818F03F0FA4F8088040F0F9
:100B30009A8094F8481094F8470050EA012003D1B5
:100B400004F15400FFF707FE94F8433094F8422074
:100B500052EA032200F0878005FB09F302EB981E9E
:100B60009E4470457FD3A0EB0E01B1FBF7F1002945
:100B700079D04FF6F570814279D840F6F577B942D1
:100B80008CBF022701270231324406EB0E00032FEF
:100B9000A16126626262E0626BD194F85F2094F8F2
:100BA0005E3053EA02235ED1B8F1000F5BD104F14D
:100BB0006000FFF7D0FDA062890001F2FF71B5EB84
:100BC000D12F50D34FF0FF3363612361032F4FF0D8
:100BD000800323712FD194F8652094F8643043EAA0
:100BE0000223012B27D1711C2046FFF7B9FE10BB51
:100BF00094F8332294F83232207143EA02234AF601
:100C00005522934217D104F13400FFF7A4FD264B7F
:100C1000984210D104F50670FFF79DFD234B9842D2
:100C200009D104F50770FFF796FD606104F50870BF
:100C3000FFF791FD20611E4A2770138801339BB294
:100C40001380E3801B4BE360002008E7032001359D
:100C5000042D7FF42BAF042805D10120FFE60428E2
:100C6000FBD0012801D90D20F9E600262AE7032749
:100C700089E7B8F1000FF6D0022F4FEA410018BF04
:100C80004018134418BF01F00101A3620CBF0146D4
:100C900001EB500191E70B20E1E60C20DFE6032099
:100CA000DDE600BF84100020525261417272416142
:100CB000881000208A1000200129F8B504460E464D
:100CC00053D98369994250D20378022B29D0032B40
:100CD00039D0012B49D101EB5105416A01EBD521F6
:100CE000FFF73EFE10B14FF0FF30F8BD6F1C616A98
:100CF000C5F30A05254401EBD721204695F8345069
:100D0000FFF72EFE0028EED1C7F30A073C44F30795
:100D100094F8340045EA00204CBF0009C0F30B00F2
:100D2000F8BD416A01EB9621FFF71AFE0028DAD1DF
:100D300040F2FE73343403EA4606A319A05D5B78E3
:100D400040EA0320F8BD416A01EB5621FFF708FE97
:100D50000028C8D140F2FC70343400EA86002044F8
:100D6000FFF7F9FC20F07040F8BD0120F8BDB1F5A7
:100D7000001FF8B506460D4601D30220F8BDCA068D
:100D8000FBD1826804683161C2B92378022B01D992
:100D9000A36AA3B92389B3EB551FEED9A36AB36144
:100DA000B3697261002BE8D003EBD5233434C5F36B
:100DB0000A052C44B361F4610020F8BD134667892D
:100DC0001A46FF02BD42114604D22046FFF7CBFC73
:100DD000B061E5E73068FFF76FFF431C024606D0BD
:100DE0000128CAD9A3699842C7D2ED1BEAE70120BE
:100DF000F8BD2DE9F0410025D0F800808D7583699C
:100E000006460C46002B5BD0C36A01330BD001F1C0
:100E10001607D8F80C2032F815002B46002851D1BF
:100E2000234400229A75F169A57D00234E1E1846C1
:100E30002E2716F8012F202A00F1010026D0052ABE
:100E400008BFE522092807D104EB030E0DB98EF87F
:100E500016708EF80970013304EB030E8EF809202A
:100E60009DB9A2F1410CBCF1190F0CD8082891F8DA
:100E70000C808CBF4FF0100C4FF0080C18EA0C0FD0
:100E80001CBF2032D2B28EF8162001330B28D0D1ED
:100E90002DB9E21895750A7B002A08BF0023234468
:100EA00000225A72CB7A237201F11C00FFF753FC27
:100EB000206001F11600FFF74EFCE080000CA080DE
:100EC000BDE8F0810021FFF7CDFB28B10135812D70
:100ED00002D007F8010B9CE70023A1E701292DE9C7
:100EE000F04705460F4614467AD98369994277D26E
:100EF0000378022B3FD0032B51D0012B70D101EB93
:100F00005108416A01EBD821FFF72AFD064638BB9C
:100F100005F1340908F1010AC8F30A0817F00107BE
:100F20001FBF19F8083003F00F02230103F0F0038C
:100F300014BF1343E3B209F80830696A0123EB7068
:100F400001EBDA212846FFF70BFD064640B9CAF34C
:100F50000A0A47B1C4F3071409F80A400123EB70E9
:100F60003046BDE8F08719F80A30C4F3032423F0B3
:100F70000F031C43F0E7416A01EB9721FFF7F0FCF8
:100F800006460028ECD140F2FE7305F1340203EA74
:100F90004707D319D455C4F307245C70DEE7416AD0
:100FA00001EB5721FFF7DCFC06460028D8D140F2C0
:100FB000FC7303EA870705F1340808EB07010846CC
:100FC000FFF7C9FB24F0704400F070400443230A8B
:100FD00008F807404B70230C240E8B70CC70BDE7D3
:100FE0000226BDE72DE9F041804605680F4671B93C
:100FF0002E69F6B1AB699E4228BF01263446AB6923
:1010000001349C4218D3012E15D8002409E028464B
:10101000FFF752FE0128044637D9431C04D14FF094
:10102000FF342046BDE8F081AB699842F9D33E46D3
:10103000E4E70126E2E702242146D8F80000FFF7A2
:101040003BFE30B1012820D00130E8D0B442D6D1E7
:10105000DBE74FF0FF3221462846FFF73FFF90B90C
:1010600057B9AA696B692C61023A93420FD32B7965
:1010700043F001032B71D4E7224639462846FFF797
:101080002DFF0028EDD00128C9D00124C9E7013B7C
:101090006B61ECE783692DE9F04705468846A3B10B
:1010A00007692037B7F5001F0FD2C7F30A09046894
:1010B000B9F1000F53D141690133836141B92389EB
:1010C000B3EB571F4BD80023AB610420BDE8F0877A
:1010D0006389013B13EAD72341D12046FFF7ECFD9A
:1010E0000128064602D80220BDE8F087421C02D142
:1010F0000120BDE8F087A36998422AD3B8F1000F18
:10110000E1D069692846FFF76DFF064600283AD00E
:101110000128E8D0431CEBD02046FFF71BFC002839
:10112000E6D104F6340204F1340303F8010B9342D0
:10113000FBD131462046FFF716FB4FF00008206335
:101140004FF0010A6389984510D3236BA3EB080382
:1011500023636E6131462046FFF705FBA8613434F6
:101160004C442F61EC610020BDE8F08784F803A0B7
:101170002046FFF7CCFB0028BAD1236B013308F1DE
:1011800001082363DEE70720BDE8F087C16A4B1C36
:101190002DE9F04104460568066918D1E5274FF0AE
:1011A0000108A1692846FFF7DBFB60B9E3691F70FE
:1011B00085F8038023699E420DD901462046FFF73A
:1011C00069FF0028EDD0042808BF022003E0FFF7E4
:1011D000CEFD0028E2D0BDE8F08100002DE9F04FFF
:1011E000002185B00546D0F800A0FFF7C0FD80467D
:1011F000002840F09E804FF0FF334FF0FF09EB6274
:101200004E46A9695046FFF7ABFB8046002840F0E8
:101210009080EC692778002F00F09180E27AE52F2A
:1012200002F03F03AB7103D0120705D50F2B05D099
:101230004FF0FF33EB6257E00F2B5ED195F82B3068
:10124000580652D4790647D52A69637BEA6207F0CB
:10125000BF0794F80D9099456FD1E37EA67E46EACC
:10126000032636B2002E3FD194F80080DAF80CB095
:1012700008F03F0808F1FF334FF00D0808FB03F8B2
:101280000121304BF25CA3185878A35C43EA002399
:1012900031B3B8F17F0F27D818460393FFF700FA50
:1012A00008F1010202903BF818000192FFF7F8F9EB
:1012B0000299814218D1039B019A19469046013642
:1012C0000D2EDED123785A0603D511B13BF8183024
:1012D00053B9013FFEB208E0BE4205D14B46B8E724
:1012E0004FF6FF729342EAD0FF2600212846FFF70F
:1012F000D1FE8046002884D01BE026B92046FFF7A7
:101300003DFA814515D095F82B30DB0790D404F1D8
:101310000B0105F1200214F8013B12F8010B8C427D
:10132000A3EB000302D0002BF5D081E7002B7FF464
:101330007FAF404605B0BDE8F08F9946D4E74FF047
:101340000408F6E7505A00082DE9F74F03680093A8
:1013500007460B782F2B884601F10101F9D05C2B51
:10136000F7D00021B96098F800301F2B76D8802381
:10137000384687F82B3003B0BDE8F04FFFF7F7BCD5
:101380005C287BD0812C0BD00121FFF76BF938B1A1
:101390007F2807D8864911F8012F1AB18242FAD165
:1013A0000620F4E025F8020F26465FE032F8021D21
:1013B000202901D02E2974D1013E70E0013182E054
:1013C000D14580F0AA80B24211D1BAF10B0F06D1FB
:1013D000A7E0B24203D044F0030400F2A680AD00BF
:1013E000EDB232464FF00B0A4FF008098EE07F282D
:1013F0000DD900210192FFF735F9019A18B16D4B13
:10140000184410F8800C80B244F0020438B16A4BE2
:1014100013F8011F002900F0BD808142F8D144F08B
:1014200003045F2007EB090109F1010981F820009D
:101430006CE045F00205F5E75A0700F1A880BB799A
:10144000DB0665D5009B03F134013B69C3F30A0356
:101450001944009B1878FFF740FAB8603B68D3F84E
:101460000CB008F1FF39ABF10205002619F8010FA5
:101470001F2806F101040BD92F2881D108EB0402A3
:10148000A2EB080412F8011B2F29F9D05C29F7D030
:101490002028A0440BEB460234BF04240024002E75
:1014A00084D100210BEB46022BF81610002E3FF4DE
:1014B00077AF07F12B0007F12001202501F8015B30
:1014C0008142FBD100213BF8110020283FF476AF88
:1014D0002E283FF473AF09B144F0030432F8020D33
:1014E0002E2801D0013EF9D14FF000094FF0080A33
:1014F0004D463BF811004A1CB8B1202804D02E28D4
:101500007FF45EAFB24205D044F003041146F0E729
:1015100005203CE0D145FFF458AFBAF10B0F7FF442
:1015200058AF44F003044FF00B0A97F82030E52B36
:1015300004BF052387F82030BAF1080F04BFAD00BF
:10154000EDB205F00C030C2B03D005F00302032AC7
:1015500001D144F00204A10709D405F00305012DCF
:1015600008BF44F01004042B08BF44F0080487F8B7
:101570002B403846FFF732FE97F82B3000283FF417
:101580005BAF042803D113F0040F08BF052003B09C
:10159000BDE8F08FA0F1410119297FF64AAFA0F113
:1015A000610119299EBF203845F0010580B239E755
:1015B0005C5A0008D0590008655A00082DE9F84F18
:1015C000FF250668454F81462C464FF0040A4FF62A
:1015D000FF78D9F8181019B9BAF1000F71D064E08A
:1015E0003046FFF7BDF9824600285ED1D9F81C00CD
:1015F0000378002B6FD0C27AE52B02F03F0289F806
:1016000006204AD02E2B48D022F02001082944D0B1
:101610000F2A51D15A063ED503F0BF04D9F8103035
:10162000457BC9F82C30437BAB4236D1C27E837EEA
:1016300043EA02231BB283BB0278F16802F03F0247
:10164000013A4FF00D0E0EFB02FE4FF0010C13F8A5
:1016500007A000EB0A0292F801B010F80A2042EA53
:101660000B22BCF1000F24D0BEF17F0F15D821F85A
:101670001E2094460EF1010E01330D2BE7D10378A5
:101680005B0605D5BEF17F0F07D8002321F81E3079
:10169000013CE4B202E0A342C5D0FF240021484649
:1016A000FFF7F8FC8246002893D00023C9F81830D1
:1016B00009E04245E0D0F0E744B9FFF75FF8A842FF
:1016C00004D14FF0000A5046BDE8F88F4FF0FF33C9
:1016D000C9F82C30F7E74FF0040AE6E7505A000843
:1016E000F8B50D46012D0746114601D80220F8BD78
:1016F0000468A3699D42F9D22AB14FF0FF32204617
:10170000FFF7ECFB08BB29463868FFF7D5FA064619
:1017100008B90020F8BD0128E8D0431C14D00022ED
:1017200029462046FFF7DAFB78B9A2696369911E62
:101730008B4205D201336361237943F001032371A6
:1017400096423546DFD3E4E70120F8BD2DE9F04F9E
:1017500090F82B4014F0A00489B0054640F0848036
:101760000668F26832F81430002B55D105F12007D5
:101770000C22394605A8FFF7A7F89DF81F30DB07B4
:101780007BD54023DFF8348285F82B304FF00109F8
:101790000B2205A93846D6F80CA0FFF795F8B9F149
:1017A000050F4ED84B46072203F00F0000F1300121
:1017B000392988BF00F13701013A03A810441B09F9
:1017C0004170F1D108A911447E2001F8140C9A420D
:1017D0003DD0F95C202938D13B44072A9BBF08A99A
:1017E0008918202111F8141C03F8011BA3EB070131
:1017F00098BF01320729F0D92846FFF7EFFC82464F
:10180000A8BB09F10109B9F1640FC1D14FF0070A72
:10181000504609B0BDE8F08F0134A3E7102002F074
:10182000010E0EEB430313F4803F18BF83EA080355
:1018300001384FEA5202F2D131F8022F002AEDD1DD
:10184000B1E7AAF102014B46F6E70133BFE71346C1
:10185000C2E7804601212846FFF71CFC824610B3F0
:10186000BAF1040FD2D0D3E74FF0060AD0E704282C
:10187000CED19DF81F3085F82B309DF81F30D5F85C
:1018800000909B0748BF0C344FF00001284649BF29
:101890000D230124B4FBF3F40134FFF768FA824608
:1018A0000028DDD18046A9694846FFF759F88246ED
:1018B0000028D5D1EB691B78E52B01D0002BC8D1CE
:1018C00008F101084445C5D1013C56D02969284694
:1018D000A1EB4411FFF74BFA8246002898D1384615
:1018E000FEF74CFF4FF6FF798046A9693046FFF7B7
:1018F00037F8824600288BD1EB69D6F80CC083F804
:101900000D800F22E1B24FF00D0EDA724A1E0EFB6F
:1019100002F218739876D8760192864648451FBF22
:10192000019A3CF8120001320192234A1EF802A0EB
:101930000EF1010E03EB0A0B03F80A004FEA102A1E
:10194000002808BF4846BEF10D0F8BF801A0E5D175
:10195000484503D0019A3CF812200AB941F04001F1
:1019600019700123F37000212846FFF793FB82468C
:1019700000287FF44DAF013CB7D1A9693046FEF78E
:10198000EFFF824600287FF443AFEB69514603F135
:10199000200203F8011B9342FBD10B223946E86970
:1019A000FEF792FF95F82B30EA6903F018031373E2
:1019B0000123F3702CE700BF505A000821100100EA
:1019C00038B50446FEF7C6FF002851D12378032B13
:1019D00046D12379012B43D104F1340104F63402BA
:1019E0000B46054603F8015B9A42FBD1552384F868
:1019F0003232AA2384F83332522384F8343084F804
:101A00003530612384F8363084F81B32636984F8FA
:101A10001C32412284F8372084F81A221A0A84F8EA
:101A20001D221A0C1B0E84F81F32236984F81E2213
:101A30001A0A84F821221A0C84F82222226A84F8D5
:101A4000203272201B0E013284F8180284F8190229
:101A500084F82332226301236078FEF743FE257168
:101A6000002211466078FEF763FE003018BF0120A7
:101A700038BD00001FB5019004A8009140F8041D76
:101A80001446FEF7EEFE011E15DB0D4B53F8210048
:101A900008B100220270019808B10022027043F8D8
:101AA000210030B1012C08D1002201A96846FEF7BF
:101AB000B3FF04B010BD0B20FBE70020F9E700BF27
:101AC000841000202DE9F04F91B015460191044695
:101AD000002800F0DC8002F03F06324602A901A88F
:101AE000FEF79AFF0746D8B90DF14009029B49F865
:101AF000343D01994846FFF727FC20B99DF937305E
:101B0000002BB8BF062015F01C0F00F08C8058B1D8
:101B1000042802D14846FFF719FE46F0080660B1D6
:101B2000002323600746ACE09DF8123013F0110F3C
:101B300040F08480680700F1AC8031073CD50A9BF7
:101B4000DDF808A0002521214E2219745A749D73D6
:101B5000DD730A9B19765A769D75DD750A9B2022E6
:101B6000DA72DDF828B09AF800005946FEF7B5FEA3
:101B70002A46804659465046FEF7BDFE0A9B1D7711
:101B80005D779D77DD77029B0122DA70B8F1000F57
:101B900012D02A4641464846D3F830A0FFF7A0FDB0
:101BA0000028BDD151460298FEF7DAFE029A08F1EC
:101BB000FF3313610028B3D1DDF808900A9DD9F8EE
:101BC00030302362656299F800003107294648BF2A
:101BD00046F04006FEF781FEA06005F11C00FEF70E
:101BE000BAFDB9F80630A38004F128080023E060AC
:101BF000C4F8009026746374E361636104F62801FD
:101C0000424602F8013B8A42FBD1B20639D5E5686B
:101C1000002D36D0B9F80A60A1686561F602AE42BF
:101C20000ED3002018E000287FF47AAF9DF8123020
:101C3000DA0630D4AD07BFD5D807BDD507206FE78A
:101C40002068FFF739F8012801461ED9431C584285
:101C50005841AD1B0028E2D0A16100287FF460AF9D
:101C6000C5F30A036BB1029E3046FEF77CFDA0B1BE
:101C700000EBD522E261012341467078FEF726FD94
:101C800068B9384611B0BDE8F08F0220E1E70927B6
:101C9000F7E7082044E7042042E7022040E701205C
:101CA0003EE72DE9F04F9B4685B000238946CBF8EF
:101CB000003003A904461546FEF7EBFD0646F8B9C9
:101CC000667CEEB9237CD90740F18F80E3686769B1
:101CD000DF1BAF4228BF2F4604F1280A87B1626993
:101CE000C2F30A03002B72D1039B5B89013B13EA09
:101CF000D22315D142B9A06801280CD802266674F7
:101D0000304605B0BDE8F08FA16920680093FEF76A
:101D1000D3FF009BF0E7421C01D10126EFE7A06151
:101D20000193039BA16900931846FEF71CFD002850
:101D3000E4D0019BFD0A03EB00082AD0009A00982A
:101D4000528940785919914288BFD51AEBB2424660
:101D50004946FEF7BBFC0028DFD194F91030002B78
:101D60000BDAE069A0EB0800854206D94FF4006267
:101D7000514609EBC020FEF7A7FDED0263692B4435
:101D80006361DBF800302B44A944CBF800307F1BA3
:101D9000A4E7E269904518D094F91030002B0BDAD3
:101DA0000098012351464078FEF79CFC0028B4D1EE
:101DB000237C03F07F03237403980123424651469A
:101DC0004078FEF783FC0028A7D1C4F81C80616925
:101DD000C1F30A01C1F50065BD4228BF3D462A4650
:101DE00051444846FEF770FDC8E7072688E773B5FB
:101DF00001A90546FEF74DFD064600283BD12B7C88
:101E00005A0638D51B060CD50198EA69407801239B
:101E100005F12801FEF766FC80BB2B7C03F07F03F5
:101E20002B74296A0198FEF79BFD064618BB6C6A65
:101E3000E37A43F02003E372AA6828682146FEF79C
:101E40005AFDEB6823771A0A62771A0C1B0EE377A8
:101E5000212323760198A6754E2363760123E67528
:101E6000A674E674A277C370FFF7AAFD2B7C23F05B
:101E7000400306462B74304602B070BD0126FAE7D7
:101E800013B50446FFF7B3FF28B901A92046FEF7B2
:101E900000FD00B9206002B010BD1FB504460191DD
:101EA00050B3002203A901A8FEF7B6FD70B9039B49
:101EB000236001992046FFF747FAF8B994F92B30CF
:101EC000002B0CDBA379DB0603D405200023236061
:101ED00010E0039BE1691878FEF7FFFCA060039B0C
:101EE000DB88A38000212046FEF741FF0428ECD0C8
:101EF0000028EBD104B010BD0920FBE70428E4D092
:101F0000E4E773B50D4601A90446FEF7C2FC20B90B
:101F10002DB901462046FEF72AFF02B070BD2046CB
:101F2000FFF74CFB10F0FB06F7D129462046FEF7E1
:101F300060FF31462046FFF7ADF8042808BF0020B7
:101F4000EBE7F8B506460D4601F11607294630467F
:101F5000FFF7D7FF044650B94DB1AB7D3BB1034607
:101F600002463946306BFEF72FFC0028EED02046A3
:101F7000F8BD38B50D46036311460446FFF78DFFE3
:101F800028B929462046BDE83840FFF7DABF38BDFA
:101F9000F0B59FB00222019003A901A8FEF73CFD15
:101FA000039B0493044670B9019904A8FFF7CCF988
:101FB000044640B99DF93B30002B10DB9DF81670AC
:101FC000FA070ED5072420461FB0F0BD0246294669
:101FD00004A8FFF785FB04460028F4D122E006247C
:101FE000F1E7039E0B993078FEF777FCFB06054678
:101FF00010D5214611A811961395FEF7B8FE044698
:102000000028E0D111A8FFF7D9FA04460028D9D05A
:102010000428D8D104A8FFF7B9F804460028D2D183
:10202000002DD3D10398FFF7CBFC0446CBE700008B
:1020300038B50D460446014601222846FFF742FD09
:1020400050B9EB688BB92846FFF71AFF21460748BD
:1020500000F0E4FD0B2038BD042815BF01460448FC
:102060000448214600F0DAFD012038BD6D5A000811
:102070007C5A00088B5A0008202383F3118801F052
:10208000CBBF08B501F0DAFF002383F3118808BD48
:1020900010B50446FFF7F0FF236820461B689847F9
:1020A000BDE81040FFF7EDBF202383F3118801F056
:1020B00091BF08B501F09EFF002383F3118808BD8E
:1020C0001C4A1D4B506A1969C90306D5516A091A81
:1020D000B1F5E17FF7D3022070471A69910727D441
:1020E0001A69120724D41A69D00621D41A699106F4
:1020F0001ED41A6952061BD41A69100618D41A691C
:10210000D10515D41A69920512D41B695B040FD44A
:10211000094A116911F400410AD1106910F0010057
:1021200000D17047136943F00103136108467047FB
:1021300001207047000C004000200240074B9A68C5
:1021400022F080029A60013810F8012F2AB1D96973
:102150000906FCD592B21A85F6E7704700380140AF
:1021600008B50248FFF7EAFF01BEFEE7B75A0008CC
:10217000034A136943F4434343F0FA03136170477E
:1021800000200240034B044A9A6002F188329A60B0
:10219000704700BF002002402301674508B5FFF7E4
:1021A0008FFF034A536943F00043536108BD00BFEA
:1021B0000020024070B50646FFF782FF0546D8B9F9
:1021C0000E4CFFF771FFFFF7D3FF606920F47F60CB
:1021D00020F0080040F0020040EAC6006061636938
:1021E00043F480336361FFF76BFF636923F00203FD
:1021F00063610546FFF75DFF284670BD0020024081
:10220000F8B504460D461746FFF75AFF0646002864
:102210003CD1FFF749FFFFF7ABFF1D4B1A6822F4D3
:1022200080621A605A6942F001025A6127443B1BDE
:10223000062B0CDD083556B955F8083C236055F8D7
:10224000043C6360FFF73CFF08340646EFE7104BA1
:102250005A6922F001025A611A6842F400621A6057
:102260001A6822F400621A601A6842F400721A6056
:102270001A6842F480521A601A6822F480521A6076
:102280001A6842F480621A60FFF713FF3046F8BD07
:1022900000200240034B044ADA6002F14432DA6063
:1022A000704700BF002002403B2A1908024B186A01
:1022B000C0F34050704700BF0020024010B5104CE2
:1022C000FFF7F2FEFFF75EFF19232361FFF7E2FF3E
:1022D000FFF7F6FE78B9236A23F44013236263699B
:1022E00043F400336361FFF7EBFE636943F000637F
:1022F0006361FFF753FFBDE81040FFF7DABE00BF90
:102300000020024008B501F0ABFEFFF7B5FE0A4B16
:102310001B685BB19847094B01225A61FFF7B1FE78
:1023200001F0B6FEBDE8084002F04CBA0449054889
:1023300000F090FCEFE700BF8C1A00200004014081
:10234000315B0008F45A000808B501F089FEFFF778
:1023500093FE0A4B5B685BB19847094B02225A61B6
:10236000FFF78FFE01F094FEBDE8084002F02ABAA4
:102370000449054800F06EFCEFE700BF8C1A00200E
:10238000000401403A5B0008F45A000808B501F067
:1023900067FEFFF771FE0A4B9B685BB19847094BDC
:1023A00004225A61FFF76DFE01F072FEBDE808409D
:1023B00002F008BA0449054800F04CFCEFE700BF02
:1023C0008C1A002000040140435B0008F45A000806
:1023D00008B501F045FEFFF74FFE0A4BDB685BB125
:1023E0009847094B08225A61FFF74BFE01F050FE57
:1023F000BDE8084002F0E6B90449054800F02AFCAF
:10240000EFE700BF8C1A0020000401404C5B00087D
:10241000F45A000808B501F023FEFFF72DFE0A4B21
:102420001B695BB19847094B10225A61FFF729FEDF
:1024300001F02EFEBDE8084002F0C4B90449054889
:1024400000F008FCEFE700BF8C1A002000040140F8
:10245000555B0008F45A000808B501F001FEFFF7CB
:102460000BFE0A4B1B6863B19847094B4FF4787217
:102470005A61FFF706FE01F00BFEBDE8084002F0CE
:10248000A1B90449044800F0E5FBEEE7A41A0020D6
:10249000000401405E5B0008F45A000808B501F032
:1024A000DFFDFFF7E9FD0A4B1B6863B19847094B55
:1024B0004FF47C425A61FFF7E4FD01F0E9FDBDE80D
:1024C000084002F07FB90449044800F0C3FBEEE77E
:1024D000A01A002000040140675B0008F45A0008BD
:1024E0001C4A1D4913681B0755BFD2F89430136866
:1024F000C3F30323C3F3031351F823009368C3F317
:102500008103022B06D0032B06D0144A012B08BFEF
:102510001046704712487047D168D36801F0030134
:10252000C3F30213022903F101030FD003290FD0D3
:10253000B0FBF3F3D168D068C0F34160C1F3062269
:10254000013053434000B3FBF0F070470348EFE71E
:102550000348EDE700100240C45A00080024F400CC
:10256000001BB70070B5174E174AB368C3F30313C7
:102570000546D45CFFF7B4FFE0402860B268B3685A
:102580001249C2F30222C3F3C2238A5CCB5C20FA55
:1025900002F2D8400E4B6A605A68A86042F210738B
:1025A000B2FBF3F20B4B196821F001011960013AFB
:1025B000596A9A6201225A6159621A6842F001020C
:1025C0001A6070BD001002409F5A0008AF5A000800
:1025D000801A0020000C004083680549B3FBF1F32A
:1025E00005C8B2FBF1F2B0FBF1F1024800F016BBF6
:1025F00040420F00025B000810B5074CA06820F4B1
:102600007F5020F0300040EAC32343EA022343EA2C
:102610000113A36010BD00BF0010024010B5164C9E
:10262000206820F0070040F4C063BAB9102903DD28
:10263000202903DC43F00103236010BD302904DCB2
:1026400040F4C06343F00203F6E740F4C06340295E
:10265000D4BF43F0030343F00403EDE70629EBDDA9
:102660000C2902DC40F4C063E4E71229E8DD40F401
:10267000C0631A29ECE700BF00200240054A136836
:1026800023F4C06319B943F400731360704743F433
:102690008063FAE70070004001390729F0B523D8BC
:1026A000A2F108004E281FD8082B1DD84FF4AA709D
:1026B000D840C00718D50E4E306810F0807015D184
:1026C000059CF7686408651E0A4C3C4044F003040E
:1026D00044EA45545B0844EA0222013B42EA436271
:1026E00042EA0111F160F0BD0720F0BD0320F0BD0A
:1026F000001002408C808CF8074B1A6842F48072FC
:102700001A6042F20F721968490503D4013AFAD1EE
:10271000022070470020704700100240074B1A68E3
:1027200042F480321A6042F20F721968890303D4AE
:10273000013AFAD102207047002070470010024091
:10274000074B1A6842F080721A6042F20F721968E1
:10275000890103D4013AFAD1022070470020704762
:1027600000100240044B1A6822F080721A601A6846
:102770009201FCD4704700BF00100240044B1A685D
:1027800022F080621A601A681201FCD4704700BF00
:1027900000100240074B1A6842F001021A6042F230
:1027A0000F721968890703D4013AFAD102207047E1
:1027B0000020704700100240054B9A6842F0030267
:1027C0009A609A6802F00C020C2AFAD10020704735
:1027D0000010024008B5FFF7DDFF48B9054B9A68C5
:1027E00022F003029A609A6812F00C0FFBD108BD28
:1027F000012008BD00100240694A136873B543F414
:10280000E063684E1360B36813F00C0F04460D4686
:102810002CD12046FFF7A6FF2046FFF7AFFF0F2D74
:1028200040F399802046FFF779FF014610BB204610
:10283000FFF724FF302D51D01ED8102D36D0182D83
:1028400000F09080002320461A461946FFF7D4FE78
:102850002046FFF775FF68B9F368204643F08073A0
:10286000F36002B0BDE87040FFF7A6BFFFF7B2FF0C
:102870000028CED002B070BD482D43D0502D56D088
:10288000402DDFD123683F2B04D800224021204671
:10289000FFF7C4FE02232022009303212046FFF706
:1028A000FBFE02460028E5D1402113E023680F2BF0
:1028B00004D8002210212046FFF7B0FE0223009327
:1028C0000822062301212046FFF7E6FE02460028E3
:1028D000D0D110212046FFF7A1FEB3E723682F2BAC
:1028E00004D8002230212046FFF798FE0223082258
:1028F000009301212046FFF7CFFE02460028B9D100
:102900003021E7E72368472B04D8002248212046DE
:10291000FFF784FE0623009318220423012120469A
:10292000FFF7BAFE02460028A4D14821D2E7236867
:102930004F2B04D8002250212046FFF76FFE0223C0
:102940002822009303212046FFF7A6FE0246002816
:1029500090D15021BEE7302DC0D019D8102DA5D070
:10296000182D87D12368172B04D800221821204660
:10297000FFF754FE0223009308220423012120467E
:10298000FFF78AFE024600287FF474AF1821A1E702
:10299000482DB7D0502DCAD0402D7FF46BAF71E7D2
:1029A000002002400010024008B501F059FBFFF77B
:1029B00063FB084B9B68DB0703D5074B1B6803B120
:1029C0009847FFF75EFB01F063FBBDE8084001F0AC
:1029D000F9BE00BF00300140A81A002008B501F080
:1029E0003FFBFFF749FB084B9B68DB0703D5074B11
:1029F0001B6803B19847FFF744FB01F049FBBDE8B2
:102A0000084001F0DFBE00BF00380040AC1A0020D3
:102A100008B501F025FBFFF72FFB084B9B68DB0790
:102A200003D5074B1B6803B19847FFF72AFB01F05A
:102A30002FFBBDE8084001F0C5BE00BF003C0040D0
:102A4000B01A00202DE9F04385B005469DF830907E
:102A50009846002401AEB1FBF2F302FB13100928E3
:102A600004F1010494BF303037303719C0B2194631
:102A700007F8010C002BEED1274647450DD22B68F5
:102A800049461B682846984718B10C2005B0BDE898
:102A9000F0830137F1E7002CF8D0013C2B68315D61
:102AA0001B68284698470028F5D0EEE72DE9F04F3F
:102AB0000B4685B0054614464FF00A0B19785E1C8C
:102AC00031B92B685B68284605B0BDE8F04F184760
:102AD000252905D02B6828461B68984748B3F0E79E
:102AE0005F78302F0CBF9E1C20274FF0000816F88F
:102AF000011BA1F13003DBB2092B03D92A2904D130
:102B0000237804340BFB0838F1E72E2909D116F895
:102B1000011BA1F13003092BF9D92A2901D1043471
:102B2000F5E7632939D017D841294ED003D8252994
:102B3000D0D03346C2E7532939D05829F9D104F10E
:102B4000040900974346102221682846FFF77AFFC0
:102B50000028B6D14C46ECE7692902D013D8642985
:102B6000E7D104F104092468002C07DA2B682D2131
:102B70001B68284698470028A3D164420097434623
:102B80000A222146E1E7732911D07529D1D104F138
:102B90000409009743460A22D6E72B6821781B6870
:102BA0002846271D984700288BD13C46C1E7276857
:102BB000013F17F8011F09B90434BAE72B6828460A
:102BC0001B6898470028F4D07BE7D4F80880236876
:102BD000D4F80490039300275FFA88FA4F4501DB8D
:102BE0000C34A6E7002F0DDC039BD95D3023009346
:102BF000102202232846FFF725FF00287FF461AF4B
:102C00000137EBE7B8F1000FEED02B6851461B6897
:102C1000284698470028E7D053E700000FB413B5C3
:102C200004AB53F8044B0193202383F3118801F084
:102C3000D1F9019A06482146FFF738FF01F0DAF989
:102C4000002383F3118802B0BDE8104004B0704740
:102C5000183E00200FB407B504AA054852F8041B1B
:102C60000192FFF723FF03B05DF804EB04B0704757
:102C7000183E00207047000008B5064C40F2DE30D8
:102C800001F0E9FC20680028F8D003685B689847E9
:102C9000F4E700BF681C00200EB403B503AA00F5DA
:102CA000845052F8041B01921030FFF7FFFE02B06F
:102CB0005DF804EB03B07047A0F19400A0F58050DC
:102CC000EAE70000B0F1904FF0B53FD1394DEC6C20
:102CD00044F00104EC644E0003240568B440E4436E
:102CE0002540056007680225B5403D430560012584
:102CF000002A5BD142688D4022EA05054560C26822
:102D00002240C260C56803FA06F22A43C2608368A3
:102D10001C40846082680123B34013430729836009
:102D2000CCBF0123002300EB8300C8BF0839036A2E
:102D300089000F228A4023EA020303629DF81430BF
:102D4000026A03FA01F111430162F0BD1A4CA0427C
:102D500004D1184DEC6C44F00204BBE7174CA042C0
:102D600004D1144DEC6C44F00404B3E7144CA042BD
:102D700004D1104DEC6C44F00804ABE7114CA042B8
:102D800004D10C4DEC6C44F01004A3E70E4CA042AF
:102D900004D1084DEC6C44F020049BE70B4CA0429E
:102DA00099D1044DEC6C44F0800493E742688D4067
:102DB0001543A3E700100240000400480008004843
:102DC000000C00480010004800140048001C004897
:102DD00041F210028318815841F21C025B1A82589A
:102DE000934228BF134600F5815230B51360CBB132
:102DF00041F21802002484544468C0686268E5689F
:102E0000D1605360247C29680F23A34021EA030189
:102E1000438CA3400B432B60036A1360136843F099
:102E20000103136030BD4368596830B40A6822F06A
:102E30000F020A60197C1A680E238B40536041F21E
:102E40001C0200F581531C6883581B1B835041F200
:102E50001002851881582144A94228BF00F11001B1
:102E600081503BB941F218030122C254036830BCBF
:102E70001B68184730BCFFF7ABBFFFF7D4BF41F268
:102E80001C0310B5C358B3F5805F15D241F214038B
:102E9000C258541CC4501170C15800F580521032F1
:102EA000914224BF00F11002C25041F21C0283582B
:102EB00001338350002010BD0C2010BDFFF7DFBF91
:102EC000A0F19000A0F58050F8E741F21803C35C30
:102ED0000BB1FFF77DBF7047FFF7F7BFA0F1900080
:102EE000A0F58050F8E783685B6841F228025B68D0
:102EF00010B504468058C3F163031B1A48BF6333FF
:102F00006BB1431CA350204441F22C03C35C0B70F3
:102F1000A358622B4FF0000002DDA05010BD0B2023
:102F200010BD00007FB541F28F030646C35C002B45
:102F30006BD000F5845418340DF107013046FFF7CB
:102F4000D2FF002861D194F868209DF807303AB18B
:102F5000082B84F868006066EED00D2B0AD1EBE7F1
:102F6000082B05D1636E002BE6D0013B6366E3E7D7
:102F70000D2B01D00A2B41D1636E002BDCD0002534
:102F8000E5542349204602F053FA41F28F0201230F
:102F900084F86830E0668DF80D30B554202383F353
:102FA00011881C4D01F016F801F08AF8D5F8AC3004
:102FB000002B1BDD01F084F8D5F8AC301648013B3E
:102FC000C5F8AC30D5F8943006F5845203F1080109
:102FD0001432C5F894101A60039A5A6005F19003F0
:102FE000994228BFC5F8945001F0ACF901F096F968
:102FF00001F000F8002383F311889DE7626E612AD7
:103000009AD8511C6166A35496E704B070BD00BF06
:10301000705B0008702400200825002038B5C368C4
:1030200093F828200446032A0ED8DFE802F0020EA7
:10303000181C5A680E490F488A4219680CBF8368E9
:103040004368B3FBF1F3D36038BD0A485D68FFF70E
:1030500047FAE3681B68B0FBF3F0E86038BD93E81B
:103060000600054BEDE793E806004FF40043E8E760
:1030700000380140801A00200024F400F7B505460E
:10308000C0687F4A4368934200F0C08002F58062C6
:1030900093420CBF082307238189009300231A461B
:1030A0008068FFF70FFEE868764A4368934200F0B5
:1030B000AF8002F58062934200F0AC8002F580623E
:1030C000934200F0A98002F5806293420CBF08236E
:1030D00000236D4C0321D4F88820994022EA010294
:1030E000C4F8882090F82820D4F8881002FA03F356
:1030F0000B43022AC4F8883002D16448FFF7FCFA77
:10310000EB68634A5B68934240F08880236E43F427
:1031100080432366D4F8803023F48043C4F88030A1
:10312000D4F880302846FFF779FFE8684368806963
:1031300000225A6009212B46564A01F0FDFFEC6837
:1031400046686368686003F12802B260C768007C63
:1031500039680F22824021EA0201628C82400A43D0
:103160003A60226A326041F218020121A9540C220D
:103170001A60C0229A60424A93427ED002F5806271
:1031800093420CBF08230723A18A009301231A4608
:103190002069FFF797FDE86800231A460921C069F6
:1031A00001F0CAFFEC6842686168A86001F124037D
:1031B000936005F581530C33D36063235360C66875
:1031C000077C33680F20B84023EA0000E38CBB4043
:1031D00003433360636A1360136843F001031360B1
:1031E0000B6843F001030B602B4B1A6802B91D609A
:1031F0002A4C236843B900938022294B29484FF475
:10320000D87101F0DBF9206003B0F0BD082343E77B
:1032100002235EE704235CE706235AE7194A934238
:1032200009D1A36D43F40033A365A36F23F40033E6
:10323000A367A36F76E71C4A934207D1A36D43F4BB
:103240008023A365A36F23F48023F1E70C4A934204
:1032500007D1A36D43F40023A365A36F23F40023D8
:10326000E6E7124A93427FF45DAFA36D43F4801307
:10327000A365A36F23F48013DAE7082384E700BF74
:10328000004C00400044004000100240801A002022
:10329000003801407B2E0008681C00206C1C0020B8
:1032A000792C0008B81A0020004800400050004067
:1032B00010B52023044683F3118800F08BFE41F201
:1032C0008F030122E25400F095FE002383F311885E
:1032D00010BDFFF7EDBFA0F19400A0F58050F8E716
:1032E00010B5044600F0ECFEE36823B12046BDE8CB
:1032F000104001F015BA10BD018EC26A01238B4047
:103300009362704730B5C269048E1579C16A012392
:10331000A34025B98B620832C261002030BD8B61A9
:10332000F9E700000368B3F1904F70B585888479A0
:1033300028D12C49CA6C42F00102CA646A00D2B298
:10334000032019689040C043014019601E680121A4
:1033500001FA02F216431E605E68A94026EA0106E1
:103360005E605E68AC4034435C60DC680440DC60F6
:10337000DC68DC609C6820409860986802439A6032
:10338000996270BD184A934204D11649CA6C42F042
:103390000202D2E7154A934204D11249CA6C42F0A4
:1033A0000402CAE7124A934204D10E49CA6C42F0A1
:1033B0000802C2E70F4A934204D10A49CA6C42F09C
:1033C0001002BAE70C4A934204D10649CA6C42F093
:1033D0002002B2E7094A9342B0D10249CA6C42F0D6
:1033E0008002AAE7001002400004004800080048DC
:1033F000000C00480010004800140048001C004861
:1034000000F1784008B5C00AFEF7D4FE48B105487F
:10341000FFF704FC41F2941001F01DF9024B034A3E
:10342000DA6008BDC85B000800ED00E00400FA05A2
:1034300008B5FEF7E5FE48B10748FFF7EFFB41F29C
:10344000941001F008F9054B054ADA600548BDE81B
:103450000840FFF7E3BB00BFD55B000800ED00E0CC
:103460000400FA05E15B00082DE9F041041D054662
:1034700020460F4642F21076FFF732FF40F2E73067
:1034800000214FF47A720023E6FB0701FCF762FF8C
:103490002B460146024A2046BDE8F04101F0F4B84F
:1034A0009120000838B504460D4600F009FED4F816
:1034B000AC30002B1EDD00F003FED4F8AC30013B35
:1034C000C4F8AC30D4F8943003F10802C4F8942066
:1034D0002A681A606A685A60D4F8942004F190034C
:1034E0009A4204F1980028BFC4F8944000F02AFFE3
:1034F000002038BD022038BD38B5044600F0E0FD9C
:10350000236913B1201DFFF7EBFE4FF0FF35E36990
:103510001A78042AFDD8DFE802F0030A13222E00ED
:10352000236820469B6898470128F0D138BD596828
:103530000833E3610029EAD02046FFF795FF38BD44
:103540005A68A36903EBC203E36194F8293023B1FD
:1035500004F124011048FFF7A5FF0121ECE794F8DE
:10356000293023B104F124010B48FFF79BFF00230E
:10357000A361E36138BD226A013204BF5A68226246
:10358000226A1AB908332562E361C0E7A369E361DF
:10359000013A2262BBE700BF7024002008B5202357
:1035A00083F3118800F016FD07484FF0FF330362E4
:1035B000064B8361C361FFF79FFF00F01BFD0023F3
:1035C00083F31188FEE700BF542D00200C5C000837
:1035D00038B51A4B1B68013301D1FFF7DFFF184CD8
:1035E000A36993B1202383F3118800F0F3FC00F06A
:1035F00067FD236913B1201DFFF772FE0025A56149
:10360000E56100F0F7FC85F311880D48FFF774FEC3
:10361000202383F3118800F0DDFC72B6094A074BC2
:1036200093601B6883F30888074B1B68984700F07A
:10363000E1FC002383F3118838BD00BF008000083F
:10364000542D002000ED00E00480000808B5054B73
:103650001B68013301D1FFF7A1FFBDE80840FFF768
:10366000B7BF00BF008000082DE9F3413021644856
:10367000FFF7C2F86248FEF775FF00F073F900F03B
:103680007DFE6048FFF7FAFC5F4A60496048FFF73B
:10369000C5FA5B48FEF7A0FFFEF708FE40B15D48A3
:1036A000FFF7BCFA4FF4E17000F0D5FFFEF706FE1D
:1036B000594D05F12C00FFF735FE298EEA6A57486F
:1036C00001238B40936156490022FEF7D3F940B1A4
:1036D0005448FFF7A3FA40F2DE3000F0BCFFFFF7DA
:1036E00077FF514B4E4A51495148FEF742FC40B1D9
:1036F0005048FFF793FA40F2DE3000F0ACFFFFF7DE
:10370000A5FF4A4B9B7D4BB947494B48FFF786FACB
:1037100040F2DE3000F09FFFFFF798FF474948482E
:10372000FFF77CFA47494548FEF782FC08B1FFF7EE
:103730008DFF444C4FF02008E66888F3118800F0B4
:1037400049FC0027FEF72AFDFEF71CFD00F052FCA5
:1037500087F3118888F3118800F03CFC4FF0FF33A9
:103760002B62394BAB61EB612B48FFF7C5FE00F0D4
:1037700041FC87F31188354DDFF8E480344F26B1E2
:1037800045451ED93348FFF749FA3348FFF746FA53
:1037900040F2DE3000F05FFF2A48FEF771FB274859
:1037A000FEF7F6FB202383F3118800F013FCFEF7ED
:1037B000F5FC00F01FFC002383F31188FFF708FFDE
:1037C000FEE7B6F5006F02AB3246A8BF4FF40062C9
:1037D00043F8042D39462046B61AFEF762FA20B1A6
:1037E0001E48FFF71BFAFFF731FF2846FFF708FED8
:1037F0002846019A3946FFF71BFE019B1D44BEE790
:10380000801A0020882D0020345C0008425C0008EB
:10381000515C00085A5C0008542D0020202500202F
:10382000595C0008775C0008815C0008E8190020FA
:10383000B4190020895C00089B5C0008FE19002078
:10384000A95C00088C110020E45B000800800008DF
:10385000701C0020B45C0008D75C0008CB5C00083A
:10386000FFE7030838B5354A354C364D4FF4E133A0
:1038700082E818004FF09043936013610A2393820B
:103880000C2393610D23D3612F4B13622F4B536293
:10389000022382F8283009212D4B918141F2100139
:1038A000DA6003F110025A5041F2140100245A5018
:1038B00041F2180101225A5441F21C015C5003F5F7
:1038C00081510C6041F224015C5041F228015C50AE
:1038D00041F28F015A5441F2FC0241F290019C5096
:1038E00003F58852147041F204129C5041F2081200
:1038F0009C50184A1A6002F12000585041F294017D
:1039000030325A50144B00200021C3E900012C2210
:1039100021462846C3F89030C3F8943001F012FDD8
:103920004FF0FF332B620D4BEB6285F829400C4BB7
:103930002C8685F832402B6038BD00BF943E0020B5
:1039400000380140542D002092000200A010020017
:10395000882D00207C5B00087024002000040048B3
:10396000BC5B000808B500F079FF00F077F800F0C4
:1039700004F8BDE8084000F001B8704700F032B824
:10398000034B002258631A610222DA60704700BFBD
:10399000000C0040014B0022DA607047000C004030
:1039A000014B5863704700BF000C004010B500F099
:1039B00057FB0B4B1A6992070CD500241C6120237E
:1039C00083F3118800F028FB00F024FD00F036FBA3
:1039D00084F3118800F05CFBBDE8104000F0F2BEFB
:1039E000000C0040134B9A6D42F008029A659A6FE2
:1039F00042F008029A67104A9B6F936843F00803ED
:103A000093600E4B5A6842F21073B2FBF3F20C4B08
:103A1000013A9A624FF0FF32DA6200229A615A63E9
:103A2000DA605A6001225A6102211A60322000F0E5
:103A3000ADBA00BF00100240002004E0801A002050
:103A4000000C0040202383F3118800F0E5BA08B58C
:103A500000F0F4FA002383F3118808BD00F0B0BF32
:103A6000012303700023436000F1240200F13801B8
:103A700042F8043B8A421361FAD1038143817047C3
:103A800010B5044600F01CFB14B90B4800F0BCFC58
:103A9000238903F001032381638903F00103638118
:103AA000002323616361A361E36123622046BDE8D3
:103AB000104000F0F9BF00BFE65C0008F8B504460E
:103AC0000D4617461E4600F0FBFA0CB1052D02D933
:103AD0000A4800F099FC62890123AB4013436381DB
:103AE00004EB85030022DB689B6929469F601E600A
:103AF0005A602046BDE8F84000F0FEBFFB5C0008BD
:103B0000F8B504460D4617461E4600F0D9FA0CB12A
:103B1000052D02D90A4800F077FC22890123AB4029
:103B20001343238104EB85030022DB685B6929468C
:103B30009F601E605A602046BDE8F84001F070B8F2
:103B40000C5D000870B50223002504460370A0F840
:103B5000645080F8665080F8675005814581C560E3
:103B6000056145618561C561056280F84C5000F0D2
:103B700037FF63681B6823B129462046BDE87040C3
:103B8000184770BD436802781B6880F868200522DA
:103B900002700BB1042118477047436890F8682001
:103BA0001B6802700BB105211847704790F84C3024
:103BB00070B5044613B1002380F84C3004F15C0268
:103BC000204600F090FF63689B6863BB94F85C50EC
:103BD00015F0600615D194F85D3005F07F0545EAD3
:103BE000032540F202339D4200F00B8159D8022D8B
:103BF00000F0D9803DD8002D00F08580012D00F027
:103C0000CC800021204601F0EFF90021204601F090
:103C1000E1F963681B6813B1062120469847062323
:103C200084F84C3070BD204698470028CED094F8D8
:103C3000632094F8623043EA0223626D934238BFF6
:103C4000636594F95C30656D002B80F2FA80002D7D
:103C500000F0EB80092384F84C30FFF7F3FE636D2E
:103C6000226D00212046FFF74BFFBDE87040FFF7B3
:103C7000EEBEB5F5817F00F0B080B5F5407F49D04C
:103C8000B5F5807FBDD194F85E30012BB9D1B4F881
:103C9000643023F00203A4F8643026656665A665E7
:103CA000C5E740F201639D421ED8B5F5C06F3BD217
:103CB000B5F5A06FA5D1B4F85C30B3F5A06F0ED107
:103CC00094F85E3084F86630204600F0E1FE6368C8
:103CD0001B6813B10121204698470323237000235A
:103CE00023656365A365A2E7B5F5106F32D040F692
:103CF00002439D4251D0B5F5006F82D104F16703B4
:103D00002365012324E004F1640323650223636532
:103D1000A5658CE794F85E30012B7FF472AFB4F8A0
:103D2000643043F00203B6E794F86120616894F8C8
:103D300060304D6894F85F1043EA0223204694F8FF
:103D40005E20A84700283FF45CAF43682365036802
:103D50006365A4E72378042B0FD1FFF773FE204699
:103D6000FFF78EFEFFF773FE636884F867601B68D9
:103D7000032121700BB12046984794F85E30002B48
:103D8000ADD084F867300423237063681B68002B70
:103D9000A5D0022120469847A1E7324B2365022394
:103DA000636500239EE794F8601011F0800F2046B1
:103DB00001F00F010ED000F089FE012806D0022884
:103DC0007FF41FAF284B2365606568E7274B2365A9
:103DD000656564E700F06DFEEFE794F85E30002B58
:103DE0007FF40FAF94F8603013F00F013FF477AF1A
:103DF0001A06204602D501F00BF970E701F0FEF833
:103E00006DE794F85E30002B7FF4FBAE94F86030E1
:103E100013F00F013FF463AF1B06204602D501F0FB
:103E2000E3F85CE701F0D6F859E7142384F84C3046
:103E3000FFF708FE2B462A4600212046FFF73EFEEC
:103E400013E73DB1152384F84C30FFF7FBFD636D9C
:103E5000226DF1E70B2384F84C30FFF7F3FD2B467E
:103E60002A46FEE6225D00081E5D0008205D00086F
:103E700038B590F84C300446152B29D8DFE803F00C
:103E80003D28282828283D28280B29382828282894
:103E9000282828283D3D90F8631090F86220436D53
:103EA00042EA01229A4214D9C268128AB3FBF2F59F
:103EB00002FB15356DB9FFF7C5FD2B462A4629468D
:103EC0002046FFF71DFEFFF7C2FD0A2384F84C30A1
:103ED00038BD142384F84C30FFF7B4FD00231A4694
:103EE00019462046FFF7EAFDBDE83840FFF7AFBDB1
:103EF000836D03B198470023E8E7002101F074F8CF
:103F00000021204601F066F863681B6813B10621A2
:103F1000204698470623D9E738B590F84C30152B42
:103F2000044623D801229A4040F641631A421ED12A
:103F300012F4801510D1930218D50B2380F84C3061
:103F4000FFF780FD2B462A4629462046FFF7D8FD7D
:103F5000BDE83840FFF77BBDC3689B695B682BB940
:103F6000836D03B19847002384F84C3038BD00219D
:103F700001F03AF80021204601F02CF863681B6834
:103F800013B10621204698470623EDE700F1604370
:103F900000F01F02400903F5614309018000C9B226
:103FA00000F1604083F8001300F561400123934065
:103FB000C0F8803103607047044B9A6A0AB9DB6A23
:103FC00013B1034800F020BA704700BF5C3F0020E7
:103FD000245D000810B5054CA36A0BB9E36A13B160
:103FE000034800F011FA0123E36210BD5C3F00209A
:103FF000335D000810B5064CA36A13B9E36A002BC1
:1040000002DC044800F000FA0023E36210BD00BFA8
:104010005C3F00203D5D000810B5064CA36A002BF4
:1040200001DDE36A13B1044800F0EEF90123E36215
:1040300010BD00BF5C3F0020385D000810B5064C85
:10404000A36A002B02DDE36A002B02DC034800F0C8
:10405000DBF90023E36210BD5C3F0020425D0008F5
:1040600010B5202383F31188074CA36A002B01DBD2
:10407000E36A13B1054800F0C7F9A36A0133A362EC
:10408000002383F3118810BD5C3F0020295D0008E8
:1040900010B5202383F31188074CA36A002B01DDA0
:1040A000E36A13B1054800F0AFF9A36A013BA362CC
:1040B000002383F3118810BD5C3F00202E5D0008B3
:1040C000054B9A6A002A02DBDB6A002B02DC0348FC
:1040D00000F09AB9704700BF5C3F0020475D0008C0
:1040E000044B9A6A12B9DB6A002B02DC024800F02A
:1040F0008BB970475C3F00204D5D0008024B0022E9
:104100001B605B609A6070475C3F002010B50446FE
:10411000FFF7D6FF14B9094800F076F9002323759C
:10412000A268074B1B6899689142FBD25A682360CA
:104130006260204614605C6010BD00BF535D0008E3
:104140005C3F002038B50446202383F31188FFF735
:1041500063FF237D0025052B0BD8DFE803F0030A5E
:104160000A081C16FFF76AFF85F3118838BDA3699A
:104170001D604FF0FF33A3612046FFF7C7FFFFF735
:104180005DFF002383F3118838BDA569FFF798FF11
:10419000AB680133AB6094E80C001A60226853608E
:1041A000E7E7000010B50446FFF78AFF14B9094895
:1041B00000F02AF900232375A268074B1B68996851
:1041C0009142FBD85A6823606260204614605C60AC
:1041D00010BD00BF5F5D00085C3F002070B50E4C55
:1041E00025690646FFF77CFF23682E751A68226052
:1041F0005460012223611A75EFF309832A69643B35
:104200009A4202D9054800F0FFF829462069BDE826
:104210007040FBF7F1BF00BF5C3F0020705D0008FD
:1042200070B50E4686B00546FFF75AFF731C0D4C5D
:1042300013D023690C4A314601A800F025FA28461C
:10424000FFF7CCFFFFF73CFF049B13B101A800F080
:1042500067FA2369986906B070BD2846FFF7BEFF6C
:10426000F7E700BF5C3F002045410008F8B5134E5A
:1042700004460F463569FFF733FFA761A268AB68B4
:104280009A4204D82046BDE8F840FFF73FBF2846D1
:10429000FFF788FF0123054634612375EFF3098397
:1042A0000269643B9A4202D9054800F0ADF82946FC
:1042B0002046BDE8F840FBF79FBF00BF5C3F0020F1
:1042C000705D0008044B1A681B6990689B689842EF
:1042D00094BF0020012070475C3F002038B50D4C92
:1042E000236820691A682260546001221A752361CC
:1042F000FFF758FF0546EFF309830269643B9A42D2
:1043000002D9054800F080F829462069BDE8384008
:10431000FBF772BF5C3F0020705D000808B5FFF737
:10432000DFFEFFF7CDFE064B1A681B6992689B689B
:104330009A4203D9BDE80840FFF7D0BF08BD00BFCF
:104340005C3F002010B50446FFF7BAFE14B90948D7
:1043500000F05AF8A3680133002BA36009DC206841
:10436000036823605C6000238361BDE81040FFF7B1
:10437000CDBE10BD7F5D0008FEE7000038B51A4CC9
:10438000FFF7BCFE002500F071F980221749A562F5
:1043900004F13000E56200F0AFF8154B20610361D5
:1043A00001230375134B144AD96821F4E061090411
:1043B000090C0A431149DA60CA6842F08072CA6087
:1043C0000F490A6842F001020A601022DA772022BF
:1043D00083F82220FFF7F0FD85F3118862B60948C3
:1043E000BDE8384000F0D2B85C3F00208C5D00088A
:1043F0000004002000ED00E00003FA05F0ED00E00D
:10440000001000E0945D000872B6014B5862FEE7B0
:104410005C3F00202DE9F84F234CDFF89090FFF728
:104420004FFEFFF74DFE656904F114074FF00008D9
:10443000D9F82430266AAA689E1B964221D34FF0F1
:10444000200AAA68236AD5F80CB0134423622B68AB
:10445000BB425F60A6EB02066361C5F80C8001D128
:10446000FFF798FAFFF7EAFD88F311882869D84723
:104470008AF31188FFF7D0FD6569AB689E42E0D2F0
:10448000D6E76269BA420CD0916823628E1B9660AF
:10449000A86802282CBF1818981CBDE8F84FFFF731
:1044A0007FBABDE8F88F00BF5C3F0020000C0040E1
:1044B000034B59685A68521A9042FBD8704700BFA4
:1044C000001000E0202383F31188FFF783BD08B5B7
:1044D000FFF790FD002383F3118808BD10B5044653
:1044E00010B90448FFF790FF21460820BDE81040AE
:1044F000FFF796BEB15D00088260022202750022BD
:104500004275C2617047000010B50446FFF7D8FD40
:1045100014B91C48FFF778FF6268500708D1A368F8
:10452000590705D19A4203D29B1AB3F5987F02D25C
:104530001448FFF769FFE368FF2B01D8236913B91B
:104540001048FFF761FFA068636840F8103CA0F1D5
:10455000840340F8143C236940F8443C636940F804
:10456000403C094B40F8243CE36840F8183C0223E7
:1045700000F80C3C002300F80B3C40F8043C2038C9
:1045800010BD00BFBD5D00081102000882684368CD
:1045900010B5552104469A420CD8FFF793FF2046E8
:1045A000FFF7B2FF00210446FFF760FEFFF78FFF21
:1045B000204610BD03F8011BEDE70000F8B50C46DE
:1045C00016461F46054648B1420707D1B1F5987F08
:1045D00004D34B0702D1FF2E00D817B91348FFF7B9
:1045E00013FF2A192B4655219A421CD8203C2C44F3
:1045F000FFF768FFA4F16403E360069B44F8203CE6
:104600000B4B44F8043C00210223204623756175BE
:10461000E161256144F8247CA660FFF727FEFFF7DF
:1046200056FF2046F8BD03F8011BDDE7D35D000807
:1046300011020008024B1B6998610F20FFF7CEBDE5
:104640005C3F002010B50446FFF73CFF2046BDE864
:104650001040FFF7EFBF10B50446FFF733FF2046C9
:10466000FFF73CFFBDE81040FFF731BF054B03F1FA
:1046700014025A619A614FF0FF32DA6100221A6225
:10468000704700BF5C3F0020F8B506460C46154653
:104690001F46FFF715FD0EB105B114B91D48FFF710
:1046A000B3FE1D4BF560586A1C4B37611A46022C4D
:1046B00052F8145F214638BF022195421F460AD1A5
:1046C00018625E619E61084435607560B160BDE846
:1046D000F840FFF755B91B6AAA68C41A0C1902D32F
:1046E000A41A2D6804E0944202D21819FFF758F971
:1046F000AB689C420CD86B68736035601E606E605E
:10470000B460A8684FF0FF33001BA860FB61F8BDE0
:10471000E41AE6E7E55D0008000C00405C3F00207D
:1047200010B50446FFF7CCFC14B91B48FFF76CFE2C
:104730001A490B4653F8142F944222680DD0616831
:104740000A60226851609A424FF00001E16021D076
:104750009368A1680B44936010BD00209A424A619F
:104760005360E06003D1BDE81040FFF713B99368D0
:10477000A068034493600A4A086A526A121A934274
:1047800008D9991A012998BF931C1844BDE8104014
:10479000FFF706B910BD00BFF05D00085C3F0020C8
:1047A000000C0040064A536823F001035360EFF306
:1047B0000983683383F30988002383F311887047E2
:1047C00030EF00E010B5202383F311880F4B5B68B6
:1047D00013F4006316D0EFF309844FF0807344F8AC
:1047E0004C3C0B4BDB6844F8083CA4F1680383F3B2
:1047F0000988FFF767FD18B1064B44F8503C10BD1F
:10480000054BFAE783F3118810BD00BF00ED00E00F
:1048100030EF00E0250200083002000870477047C2
:104820007047FEE70C4B70B503F18000002493E85D
:1048300026000439AA4206D3D9688A4208D3103325
:104840008342F4D370BD51F8046F42F8046BF1E772
:1048500042F8044BF1E700BF005E0008204B9A6A63
:104860004FF0FF3210B59A620024996A9C62996AEF
:10487000D96A61F0FF01D962D96AC9B2D962D96A2D
:10488000196B1A63196B1C63196B996B61F080517A
:104890009963996B01F080519963996BD96BDA63D5
:1048A000D96BDC63D96B196C1A641A6C1C641A6CB2
:1048B0009A6D42F080529A659A6F42F080529A67E0
:1048C0009B6F00F0AFFB00F031FD064B5C605A6857
:1048D00042F480625A605A6842F400725A6010BD15
:1048E0000010024000700040036F30B500229D6848
:1048F000C46E11464FF0FF3004EB42130132954273
:10490000C3F80019C3F81019C3F80809C3F8001B4D
:10491000C3F8101BC3F8080BEED24FF00113C4F814
:104920001C3830BD890141F02001016103699B06FB
:10493000FCD41220FFF7BCBD204B03EB80022DE915
:10494000F047D2F80CE0DD6EDEF81420461CD2F8F9
:1049500000C005EB063605EB4018516861450BD3E6
:10496000D5F83428012303FA00F022EA0000C5F844
:1049700034081846BDE8F087BEF81040ACEB0103E0
:10498000A34228BF2346D8F81849A4B2B3EB840F3A
:1049900010D894681F46A4F1040959F804AFC6F86A
:1049A00000A0042F01D9043FF7E71C440B44946096
:1049B0005360D2E70020BDE8F08700BFF040002040
:1049C00010B5054C2046FFF74BF84FF0A043E366C7
:1049D000024B236710BD00BFF0400020A45E00081A
:1049E000F8B5C46E054600212046FFF79BFF296FEE
:1049F00000234FF001128F68C4F834384FF000667E
:104A0000C4F81C284FF0FF3004EB431201339F42DF
:104A1000C2F80069C2F8006BC2F80809C2F8080BB6
:104A2000F2D20B68EA6E6B6763621023136116693A
:104A300016F01006FBD11220FFF73AFDD4F800382B
:104A400023F4FE63C4F80038A36943F4402343F021
:104A50001003A3610923C4F81038C4F814380A4BB2
:104A6000EB604FF0C043C4F8103B084BC4F8003B68
:104A7000C4F81069C4F800396B6F03F1100243F4F5
:104A800080136A67A362F8BD805E00084080001052
:104A9000C26E90F86610D2F8003823F4FE6343EA41
:104AA0000113C2F800387047026F12684267FFF7BF
:104AB0001BBF5831C36E49015B5813F4004004D04A
:104AC00013F4001F14BF0120022070474831C36E49
:104AD00049015B5813F4004004D013F4001F14BFC5
:104AE00001200220704700EB8101CB68196A0B6836
:104AF00013604B685360704700EB810330B5DD688D
:104B0000AA691368D36019B9402B84BF402313608E
:104B10006B8A1468C26E1C44013CB4FBF3F463431B
:104B2000033323F0030302EB411043EAC44343F091
:104B3000C043C0F8103B2B6803F00303012B09B2FC
:104B40000ED1D2F8083802EB411013F4807FD0F870
:104B5000003B14BF43F0805343F00053C0F8003BC8
:104B600002EB4112D2F8003B43F00443C2F8003B91
:104B700030BD00002DE9F041284DEE6E06EB4013EC
:104B80000446D3F8087BC3F8087B3B070AD5D6F860
:104B90001438180706D505EB84032146DB68284640
:104BA0005B689847F90737D5D6F81438DA0733D554
:104BB00005EB8403D9680CBB95F84C30DB062BD58C
:104BC0008B69488A5E68B6FBF0F200FB1262AAB9F4
:104BD0001868DA68904211D2121A83E81400202370
:104BE00083F31188FFF718FA21460C48FFF784FF7A
:104BF000FFF724FA84F31188BDE8F081012303FA5A
:104C000004F26B8923EA02036B81CB6823B121464E
:104C10000248BDE8F0411847BDE8F081F0400020AF
:104C200000EB810370B5DD68C36E6C692668E660D1
:104C30004A0156BB1A444FF40020C2F810092A68F2
:104C400002F00302012A0AB20ED1D3F8080803EBDE
:104C5000421410F4807FD4F8000914BF40F0805053
:104C600040F00050C4F8000903EB4212D2F80009EA
:104C700040F00440C2F80009D3F83408012202FAD7
:104C800001F10143C3F8341870BD19B9402E84BF37
:104C90004020206020682E8A841940F00050013C9A
:104CA0001A44B4FBF6F440EAC440C6E72DE9F041EB
:104CB000234DEE6E06EB40130446D3F80879C3F893
:104CC0000879F9071ED5D6F81038DA071AD505EB9A
:104CD0008003D9684B691868DA6890421FD2121AAB
:104CE0004FF000081A60C3F80480202383F3118872
:104CF000FFF792F921462846FFF792FFFFF79EF94A
:104D000088F311883B0618D5D6F834280123A34030
:104D1000134212D02046BDE8F041FFF70DBE01233B
:104D200003FA04F22B8923EA02032B818B68002B00
:104D3000E8D0214628469847E4E7BDE8F08100BF67
:104D4000F04000202DE9F84FFFF78AF9A048C56E22
:104D50006E69AB691E4016F4805F6E61044607D031
:104D6000FEF7F0FEFFF794F9BDE8F84FFFF72ABD14
:104D7000002E12DAD5F8003E95489B071EBFD5F8E5
:104D8000003E23F00303C5F8003ED5F8043823F0B5
:104D90000103C5F80438FEF700FF370502D58C483B
:104DA000FEF7F0FEB0040CD5D5F8083813F0060F66
:104DB000EB6823F470530CBF43F4105343F4A05337
:104DC000EB60310704D56368DB680BB18048984716
:104DD000F2026FD4B3020CD5D4F86C80DFF8F0A1E6
:104DE00000274FF00109236F9B68F9B28B4280F0D6
:104DF0009C80F70619D5E16E0A6AC2F30A1702F021
:104E00000F0302F4F012B2F5802F00F0B680B2F575
:104E1000402F0AD104EB830301F58051DB68186A47
:104E200000231A469F4240F09C803303D5F818486F
:104E30001DD5E70302D50020FFF79CFEA50302D590
:104E40000120FFF797FE600302D50220FFF792FED4
:104E5000210302D50320FFF78DFEE20202D50420D4
:104E6000FFF788FEA30202D50520FFF783FE770334
:104E70007FF578AFE60702D50020FFF717FFA507FB
:104E800002D50120FFF712FF600702D50220FFF7CD
:104E90000DFF210702D50320FFF708FFE20602D528
:104EA0000420FFF703FFA3067FF55CAF0520FFF7A3
:104EB000FDFE57E7D4F86C80DFF814A100274FF00F
:104EC0000109236F9B685FFA87FB5B4582D308EB80
:104ED0004B13D3F8002902F44022B2F5802F22D1DF
:104EE000D3F80029002A1EDAD3F8002942F09042B4
:104EF000C3F80029D3F80029002AFBDB5946E06EED
:104F0000FFF710FD228909FA0BF322EA030323813C
:104F100004EB8B03DB689B6813B1594650469847F6
:104F20005846FFF709FD0137CBE708EB4112D2F8ED
:104F3000003B03F44023B3F5802F10D1D2F8003B9F
:104F4000002B0CDA628909FA01F322EA0303638178
:104F500004EB8103DB68DB680BB1504698470137EF
:104F600041E79C0708BF0A68072B98BF027003F14E
:104F700001039CBF120A013054E7023304EB8302A1
:104F800001F58051526890690268D0F808C0406805
:104F9000A2EB000E0022104697420AD104EB8304D4
:104FA00063689B699A683A449A605A6817445F60DC
:104FB0003BE712F0030F08BF0868964588BF8CF8DE
:104FC000000002F1010284BF000A0CF1010CE3E7CA
:104FD000F0400020C36E03EB4111D1F8003B43F4D5
:104FE0000013C1F8003B7047C36E03EB4111D1F8C9
:104FF000003943F40013C1F800397047C36E03EB66
:105000004111D1F8003B23F40013C1F8003B704775
:10501000C36E03EB4111D1F8003923F40013C1F83A
:10502000003970470C4930B500230C4C0B604B60C5
:105030000122142505FB024050F8100C036041F8D2
:10504000323001320F2AF5D1054A4FF0FF33536059
:10505000C2F8043430BD00BFD83E0020C05E000856
:10506000000002402DE9F84F0746894692469B46CC
:10507000FFF726F80D2F0AD82B4C01252168BD40DB
:105080000D4208D04FF000084046BDE8F88F274891
:10509000FFF7BAF9F6E77A1C254E44F832A004EB84
:1050A000C2024FF0140829436B0608FB0768C2F8D8
:1050B00004B0216009D01F4B9A6C42F001029A643F
:1050C0009A6E42F001029A669B6E15F47E5F09D0DB
:1050D000184B9A6C42F002029A649A6E42F00202F5
:1050E0009A669B6EBAF1000F0DD0142000FB07608A
:1050F000626883681A4203D14946807CFEF746FF06
:1051000063681D43656014235F43F119F0594B68D0
:10511000097C1A6822F00F021A600E228A4042604F
:1051200000221A60B0E700BFD83E0020B05E000841
:10513000C05E000800100240F8B51F4604460D4648
:105140001646202383F31188FEF744FF3B46324680
:1051500029462046FFF786FF0446FEF74BFF002353
:1051600083F311882046F8BD10B40468037C2168DD
:105170004268D940126801F00E0111420ED0427C03
:1051800001FA03F363600132054B53F832402CB14E
:1051900003EBC2035868234610BC184710BC704785
:1051A000D83E002008B5FEF75BFF0448FFF7DCFFA0
:1051B000FEF76EFFBDE80840FFF704BBC05E0008C5
:1051C00008B5FEF74DFF0448FFF7CEFFFEF760FF7E
:1051D000BDE80840FFF7F6BAD45E000808B5FEF750
:1051E0003FFF0448FFF7C0FFFEF752FFBDE808404D
:1051F000FFF7E8BAE85E000808B5FEF731FF04489B
:10520000FFF7B2FFFEF744FFBDE80840FFF7DABA48
:10521000FC5E000808B5FEF723FF0448FFF7A4FF73
:10522000FEF736FFBDE80840FFF7CCBA105F000874
:1052300008B5FEF715FF0448FFF796FFFEF728FFB5
:10524000BDE80840FFF7BEBA245F000808B5FEF7C6
:1052500007FF0448FFF788FFFEF71AFFBDE8084084
:10526000FFF7B0BA385F000808B5FEF7F9FE04484A
:10527000FFF77AFFFEF70CFFBDE80840FFF7A2BA80
:105280004C5F000808B5FEF7EBFE0448FFF76CFF23
:10529000FEF7FEFEBDE80840FFF794BA605F000825
:1052A00008B5FEF7DDFE0448FFF75EFFFEF7F0FEEF
:1052B000BDE80840FFF786BA745F000808B5FEF73E
:1052C000CFFE0448FFF750FFFEF7E2FEBDE80840BE
:1052D000FFF778BA885F000808B5FEF7C1FE0448FA
:1052E000FFF742FFFEF7D4FEBDE80840FFF76ABAB9
:1052F0009C5F000808B5FEF7B3FE0448FFF734FFD3
:10530000FEF7C6FEBDE80840FFF75CBAB05F0008D4
:1053100008B5FEF7A5FE0448FFF726FFFEF7B8FE26
:10532000BDE80840FFF74EBAC45F0008704710B5EB
:10533000431E0A44914200D110BD11F8014B03F8FD
:10534000014FF7E702440346934200D1704703F848
:10535000011BF9E770B5CD1C25F0030508350C2DB0
:1053600038BF0C25002D064601DBA94203D90C23CA
:105370003360002070BD00F0B7F8234A146821465E
:1053800091B9224C23681BB9304600F041F82060E7
:105390002946304600F03CF8431C26D10C233360EC
:1053A000304600F0A2F8E4E70B685B1B1AD40B2B25
:1053B0000FD90B60CD50CC18304600F096F804F1B0
:1053C0000B00231D20F00700C31A1BD05A42E250E5
:1053D00070BD8C420DBF63684B686360136018BF7B
:1053E0000C46E9E70C464968CAE7C41C24F00304EC
:1053F000A04205D0211A304600F00AF80130CDD085
:105400002560D9E770BD00BF503F0020543F002009
:1054100038B5064C002305460846236000F066F8C0
:10542000431C02D1236803B12B6038BD68410020C2
:10543000134B2DE9F0411D68AC6D06460F46B4B91B
:10544000502000F049F8A865046044608460C4609E
:105450000461446184618462C4620463446384635C
:10546000C463046444648464C46404774462AA6DBD
:10547000394630460123BDE8F04100F003B800BFD3
:1054800000080020F0B518B9106808B9F0BD204632
:1054900004460F4614F8015B17F8016B1EB965B995
:1054A00015602846F0BDB542F6D1002BEFD114604F
:1054B0000370F0BD1C460CE015B914F8013B0E4614
:1054C00016F8015BAB42F7D1002BF3D0002304F8B0
:1054D000013C1460F0BD0000024B01461868FFF764
:1054E00039BF00BF0008002070477047044B19689F
:1054F000024609B903491960186802441A607047E6
:08550000583F00206C4100201F
:04550800F8B500BF33
:04550C00F8B500BF2F
:1055100010041104120413041404150416041704CF
:10552000180419041A041B041C041D041E041F047F
:10553000200421042204230424042504260427042F
:10554000280429042A042B042C042D042E042F04DF
:10555000300431043204330434043504360437048F
:10556000380439043A043B043C043D043E043F043F
:10557000912592259325022524256125622556250E
:1055800055256325512557255D255C255B2510256F
:10559000142534252C251C2500253C255E255F255A
:1055A0005A25542569256625602550256C256725D3
:1055B00068256425652559255825522553256B25D1
:1055C0006A2518250C25882584258C25902580257D
:1055D000400441044204430444044504460447048F
:1055E000480449044A044B044C044D044E044F043F
:1055F0000104510404045404070457040E045E0417
:10560000B0001922B7001A221621A400A025A0007C
:105610006100620063006400650066006700680066
:1056200069006A006B006C006D006E006F00700016
:1056300071007200730074007500760077007800C6
:1056400079007A00A100A200A300A500AC00AF0081
:10565000E000E100E200E300E400E500E600E7002E
:10566000E800E900EA00EB00EC00ED00EE00EF00DE
:10567000F000F100F200F300F400F500F600F8008D
:10568000F900FA00FB00FC00FD00FE00FF00010134
:1056900003010501070109010B010D010F011101B2
:1056A00013011501170119011B011D011F01210122
:1056B00023012501270129012B012D012F01310192
:1056C0003301350137013A013C013E0140014201FD
:1056D0004401460148014B014D014F015101530165
:1056E0005501570159015B015D015F0161016301D2
:1056F0006501670169016B016D016F017101730142
:10570000750177017A017C017E019201B103B20338
:10571000B303B403B503B603B703B803B903BA03BD
:10572000BB03BC03BD03BE03BF03C003C103C3036C
:10573000C403C503C603C703C803C903CA033004AF
:105740003104320433043404350436043704380495
:1057500039043A043B043C043D043E043F04400445
:1057600041044204430444044504460447044804F5
:1057700049044A044B044C044D044E044F045104A4
:10578000520453045404550456045704580459044D
:105790005A045B045C045E045F0470217121722171
:1057A00073217421752176217721782179217A213D
:1057B0007B217C217D217E217F2141FF42FF43FF10
:1057C00044FF45FF46FF47FF48FF49FF4AFF4BFFA5
:1057D0004CFF4DFF4EFF4FFF50FF51FF52FF53FF55
:1057E00054FF55FF56FF57FF58FF59FF5AFF00005F
:1057F0004100420043004400450046004700480085
:1058000049004A004B004C004D004E004F00500034
:1058100051005200530054005500560057005800E4
:1058200059005A002100E0FFE1FFE5FFE2FFE3FF3E
:10583000C000C100C200C300C400C500C600C7004C
:10584000C800C900CA00CB00CC00CD00CE00CF00FC
:10585000D000D100D200D300D400D500D600D800AB
:10586000D900DA00DB00DC00DD00DE007801000199
:1058700002010401060108010A010C010E011001D8
:1058800012011401160118011A011C011E01200148
:1058900022012401260128012A012C012E013001B8
:1058A00032013401360139013B013D013F01410123
:1058B0004301450147014A014C014E01500152018B
:1058C0005401560158015A015C015E0160016201F8
:1058D0006401660168016A016C016E017001720168
:1058E0007401760179017B017D019101910392039D
:1058F00093039403950396039703980399039A03DC
:105900009B039C039D039E039F03A003A103A3038A
:10591000A403A503A603A703A803A903AA031004CD
:1059200011041204130414041504160417041804B3
:1059300019041A041B041C041D041E041F04200463
:105940002104220423042404250426042704280413
:1059500029042A042B042C042D042E042F040104F2
:1059600002040304040405040604070408040904EB
:105970000A040B040C040E040F046021612162214F
:1059800063216421652166216721682169216A21DB
:105990006B216C216D216E216F2121FF22FF23FFDE
:1059A00024FF25FF26FF27FF28FF29FF2AFF2BFFC3
:1059B0002CFF2DFF2EFF2FFF30FF31FF32FF33FF73
:1059C00034FF35FF36FF37FF38FF39FF3AFF00005D
:1059D000808182838485868788898A8B8C8D8E8F4F
:1059E000909192939495969798999A9B9C9D9E9F3F
:1059F000808182838485868788898A8B8C8D8E8F2F
:105A0000B0B1B2B3B4B5B6B7B8B9BABBBCBDBEBF1E
:105A1000C0C1C2C3C4C5C6C7C8C9CACBCCCDCECF0E
:105A2000D0D1D2D3D4D5D6D7D8D9DADBDCDDDEDFFE
:105A3000909192939495969798999A9B9C9D9E9FEE
:105A4000F0F0F2F2F4F4F6F6F8F9FAFBFCFDFEFFE2
:105A500001030507090E10121416181C1E222A3AFB
:105A60003C3E3F7C7F002B2C3B3D5B5D00456D70D9
:105A700074792066696C652025530D0025533A2002
:105A80006E6F7420666F756E640D004F70656E46A4
:105A9000696C65206572726F723A2025750D000081
:105AA00000000000000000010203040607080900CE
:105AB000000000010203040D486172644661756CC8
:105AC000740D0000A0860100400D0300801A06003E
